{
  "contractName": "StreamerFactory",
  "abi": [
    {
      "constant": true,
      "inputs": [
        {
          "name": "",
          "type": "uint256"
        }
      ],
      "name": "_deployedStreamers",
      "outputs": [
        {
          "name": "",
          "type": "address"
        }
      ],
      "payable": false,
      "stateMutability": "view",
      "type": "function"
    },
    {
      "constant": false,
      "inputs": [
        {
          "name": "tokeName",
          "type": "string"
        },
        {
          "name": "tokenSymbol",
          "type": "string"
        },
        {
          "name": "tokenSupply",
          "type": "uint256"
        },
        {
          "name": "tokenDecimals",
          "type": "uint256"
        }
      ],
      "name": "deployStreamer",
      "outputs": [
        {
          "name": "",
          "type": "address"
        }
      ],
      "payable": false,
      "stateMutability": "nonpayable",
      "type": "function"
    },
    {
      "constant": true,
      "inputs": [],
      "name": "returnDeployed",
      "outputs": [
        {
          "name": "",
          "type": "address[]"
        }
      ],
      "payable": false,
      "stateMutability": "view",
      "type": "function"
    }
  ],
  "bytecode": "0x608060405234801561001057600080fd5b5061365d806100206000396000f300608060405260043610610057576000357c0100000000000000000000000000000000000000000000000000000000900463ffffffff16806310bb39a71461005c57806370fe76b0146100c8578063c7dfd23214610135575b600080fd5b34801561006857600080fd5b50610071610238565b6040518080602001828103825283818151815260200191508051906020019060200280838360005b838110156100b4578082015181840152602081019050610099565b505050509050019250505060405180910390f35b3480156100d457600080fd5b506100f3600480360381019080803590602001909291905050506102c6565b604051808273ffffffffffffffffffffffffffffffffffffffff1673ffffffffffffffffffffffffffffffffffffffff16815260200191505060405180910390f35b34801561014157600080fd5b506101f6600480360381019080803590602001908201803590602001908080601f0160208091040260200160405190810160405280939291908181526020018383808284378201915050505050509192919290803590602001908201803590602001908080601f01602080910402602001604051908101604052809392919081815260200183838082843782019150505050505091929192908035906020019092919080359060200190929190505050610304565b604051808273ffffffffffffffffffffffffffffffffffffffff1673ffffffffffffffffffffffffffffffffffffffff16815260200191505060405180910390f35b606060008054806020026020016040519081016040528092919081815260200182805480156102bc57602002820191906000526020600020905b8160009054906101000a900473ffffffffffffffffffffffffffffffffffffffff1673ffffffffffffffffffffffffffffffffffffffff1681526020019060010190808311610272575b5050505050905090565b6000818154811015156102d557fe5b906000526020600020016000915054906101000a900473ffffffffffffffffffffffffffffffffffffffff1681565b6000808585858561031361048d565b808060200180602001858152602001848152602001838103835287818151815260200191508051906020019080838360005b83811015610360578082015181840152602081019050610345565b50505050905090810190601f16801561038d5780820380516001836020036101000a031916815260200191505b50838103825286818151815260200191508051906020019080838360005b838110156103c65780820151818401526020810190506103ab565b50505050905090810190601f1680156103f35780820380516001836020036101000a031916815260200191505b509650505050505050604051809103906000f080158015610418573d6000803e3d6000fd5b50905060008190806001815401808255809150509060018203906000526020600020016000909192909190916101000a81548173ffffffffffffffffffffffffffffffffffffffff021916908373ffffffffffffffffffffffffffffffffffffffff1602179055505080915050949350505050565b6040516131948061049e83390190560060806040523480156200001157600080fd5b50604051620031943803806200319483398101806040528101908080518201929190602001805182019291906020018051906020019092919080519060200190929190505050336000806101000a81548173ffffffffffffffffffffffffffffffffffffffff021916908373ffffffffffffffffffffffffffffffffffffffff16021790555083838383620000a56200020c565b808060200180602001858152602001848152602001838103835287818151815260200191508051906020019080838360005b83811015620000f4578082015181840152602081019050620000d7565b50505050905090810190601f168015620001225780820380516001836020036101000a031916815260200191505b50838103825286818151815260200191508051906020019080838360005b838110156200015d57808201518184015260208101905062000140565b50505050905090810190601f1680156200018b5780820380516001836020036101000a031916815260200191505b509650505050505050604051809103906000f080158015620001b1573d6000803e3d6000fd5b50600160006101000a81548173ffffffffffffffffffffffffffffffffffffffff021916908373ffffffffffffffffffffffffffffffffffffffff16021790555060026003819055506032600481905550505050506200021d565b6040516113c28062001dd283390190565b611ba5806200022d6000396000f3006080604052600436106100fc576000357c0100000000000000000000000000000000000000000000000000000000900463ffffffff1680630428fc421461010157806304305f421461012c5780631457061b146101575780631f556dd61461019857806320b3cda5146101c357806345cc73e414610204578063507e7888146102c057806350df13f3146103345780635745ae28146103f057806365873e611461053457806368a7699c14610591578063715018a6146105bc5780638da5cb5b146105d3578063b22e5c7d1461062a578063b981f39514610681578063d5cef133146106dc578063f2fde38b1461070b578063fcae44841461074e575b600080fd5b34801561010d57600080fd5b5061011661077d565b6040518082815260200191505060405180910390f35b34801561013857600080fd5b506101416107c7565b6040518082815260200191505060405180910390f35b34801561016357600080fd5b50610182600480360381019080803590602001909291905050506107cd565b6040518082815260200191505060405180910390f35b3480156101a457600080fd5b506101ad61083b565b6040518082815260200191505060405180910390f35b3480156101cf57600080fd5b506101ee60048036038101908080359060200190929190505050610885565b6040518082815260200191505060405180910390f35b34801561021057600080fd5b50610245600480360381019080803573ffffffffffffffffffffffffffffffffffffffff1690602001909291905050506108f3565b6040518080602001828103825283818151815260200191508051906020019080838360005b8381101561028557808201518184015260208101905061026a565b50505050905090810190601f1680156102b25780820380516001836020036101000a031916815260200191505b509250505060405180910390f35b61031a600480360381019080803590602001908201803590602001908080601f0160208091040260200160405190810160405280939291908181526020018383808284378201915050505050509192919290505050610a13565b604051808215151515815260200191505060405180910390f35b34801561034057600080fd5b50610375600480360381019080803573ffffffffffffffffffffffffffffffffffffffff169060200190929190505050610d08565b6040518080602001828103825283818151815260200191508051906020019080838360005b838110156103b557808201518184015260208101905061039a565b50505050905090810190601f1680156103e25780820380516001836020036101000a031916815260200191505b509250505060405180910390f35b3480156103fc57600080fd5b50610431600480360381019080803573ffffffffffffffffffffffffffffffffffffffff169060200190929190505050610e28565b604051808781526020018681526020018581526020018481526020018060200180602001838103835285818151815260200191508051906020019080838360005b8381101561048d578082015181840152602081019050610472565b50505050905090810190601f1680156104ba5780820380516001836020036101000a031916815260200191505b50838103825284818151815260200191508051906020019080838360005b838110156104f35780820151818401526020810190506104d8565b50505050905090810190601f1680156105205780820380516001836020036101000a031916815260200191505b509850505050505050505060405180910390f35b34801561054057600080fd5b5061057760048036038101908080359060200190820180359060200191909192939192939080359060200190929190505050610f94565b604051808215151515815260200191505060405180910390f35b34801561059d57600080fd5b506105a66112b1565b6040518082815260200191505060405180910390f35b3480156105c857600080fd5b506105d16112b7565b005b3480156105df57600080fd5b506105e86113b9565b604051808273ffffffffffffffffffffffffffffffffffffffff1673ffffffffffffffffffffffffffffffffffffffff16815260200191505060405180910390f35b34801561063657600080fd5b5061063f6113de565b604051808273ffffffffffffffffffffffffffffffffffffffff1673ffffffffffffffffffffffffffffffffffffffff16815260200191505060405180910390f35b34801561068d57600080fd5b506106c2600480360381019080803573ffffffffffffffffffffffffffffffffffffffff169060200190929190505050611404565b604051808215151515815260200191505060405180910390f35b3480156106e857600080fd5b506106f1611528565b604051808215151515815260200191505060405180910390f35b34801561071757600080fd5b5061074c600480360381019080803573ffffffffffffffffffffffffffffffffffffffff169060200190929190505050611616565b005b34801561075a57600080fd5b5061076361167d565b604051808215151515815260200191505060405180910390f35b6000600560003373ffffffffffffffffffffffffffffffffffffffff1673ffffffffffffffffffffffffffffffffffffffff16815260200190815260200160002060030154905090565b60035481565b60008060009054906101000a900473ffffffffffffffffffffffffffffffffffffffff1673ffffffffffffffffffffffffffffffffffffffff163373ffffffffffffffffffffffffffffffffffffffff1614151561082a57600080fd5b816004819055506004549050919050565b6000600560003373ffffffffffffffffffffffffffffffffffffffff1673ffffffffffffffffffffffffffffffffffffffff16815260200190815260200160002060020154905090565b60008060009054906101000a900473ffffffffffffffffffffffffffffffffffffffff1673ffffffffffffffffffffffffffffffffffffffff163373ffffffffffffffffffffffffffffffffffffffff161415156108e257600080fd5b816003819055506003549050919050565b6060600073ffffffffffffffffffffffffffffffffffffffff168273ffffffffffffffffffffffffffffffffffffffff161415151561093157600080fd5b600560008373ffffffffffffffffffffffffffffffffffffffff1673ffffffffffffffffffffffffffffffffffffffff1681526020019081526020016000206004018054600181600116156101000203166002900480601f016020809104026020016040519081016040528092919081815260200182805460018160011615610100020316600290048015610a075780601f106109dc57610100808354040283529160200191610a07565b820191906000526020600020905b8154815290600101906020018083116109ea57829003601f168201915b50505050509050919050565b6000610a1d6119d5565b6003543410151515610a2e57600080fd5b42600560003373ffffffffffffffffffffffffffffffffffffffff1673ffffffffffffffffffffffffffffffffffffffff1681526020019081526020016000206003015411151515610a7f57600080fd5b610a943460025461170890919063ffffffff16565b5060c06040519081016040528060008152602001600081526020014281526020013481526020016020604051908101604052806000815250815260200184815250905080600560003373ffffffffffffffffffffffffffffffffffffffff1673ffffffffffffffffffffffffffffffffffffffff168152602001908152602001600020600082015181600001556020820151816001015560408201518160020155606082015181600301556080820151816004019080519060200190610b5b929190611a0c565b5060a0820151816005019080519060200190610b78929190611a0c565b50905050610bfa42610bec6228206f610bde600354600560003373ffffffffffffffffffffffffffffffffffffffff1673ffffffffffffffffffffffffffffffffffffffff1681526020019081526020016000206003015461172490919063ffffffff16565b61173a90919063ffffffff16565b61170890919063ffffffff16565b50600160009054906101000a900473ffffffffffffffffffffffffffffffffffffffff1673ffffffffffffffffffffffffffffffffffffffff1663a9059cbb336004546040518363ffffffff167c0100000000000000000000000000000000000000000000000000000000028152600401808373ffffffffffffffffffffffffffffffffffffffff1673ffffffffffffffffffffffffffffffffffffffff16815260200182815260200192505050602060405180830381600087803b158015610cc257600080fd5b505af1158015610cd6573d6000803e3d6000fd5b505050506040513d6020811015610cec57600080fd5b8101908080519060200190929190505050506001915050919050565b6060600073ffffffffffffffffffffffffffffffffffffffff168273ffffffffffffffffffffffffffffffffffffffff1614151515610d4657600080fd5b600560008373ffffffffffffffffffffffffffffffffffffffff1673ffffffffffffffffffffffffffffffffffffffff1681526020019081526020016000206005018054600181600116156101000203166002900480601f016020809104026020016040519081016040528092919081815260200182805460018160011615610100020316600290048015610e1c5780601f10610df157610100808354040283529160200191610e1c565b820191906000526020600020905b815481529060010190602001808311610dff57829003601f168201915b50505050509050919050565b6005602052806000526040600020600091509050806000015490806001015490806002015490806003015490806004018054600181600116156101000203166002900480601f016020809104026020016040519081016040528092919081815260200182805460018160011615610100020316600290048015610eec5780601f10610ec157610100808354040283529160200191610eec565b820191906000526020600020905b815481529060010190602001808311610ecf57829003601f168201915b505050505090806005018054600181600116156101000203166002900480601f016020809104026020016040519081016040528092919081815260200182805460018160011615610100020316600290048015610f8a5780601f10610f5f57610100808354040283529160200191610f8a565b820191906000526020600020905b815481529060010190602001808311610f6d57829003601f168201915b5050505050905086565b6000801515600160009054906101000a900473ffffffffffffffffffffffffffffffffffffffff1673ffffffffffffffffffffffffffffffffffffffff1663a9059cbb6000809054906101000a900473ffffffffffffffffffffffffffffffffffffffff16856040518363ffffffff167c0100000000000000000000000000000000000000000000000000000000028152600401808373ffffffffffffffffffffffffffffffffffffffff1673ffffffffffffffffffffffffffffffffffffffff16815260200182815260200192505050602060405180830381600087803b15801561107f57600080fd5b505af1158015611093573d6000803e3d6000fd5b505050506040513d60208110156110a957600080fd5b81019080805190602001909291905050501515141515156110c957600080fd5b42600560003373ffffffffffffffffffffffffffffffffffffffff1673ffffffffffffffffffffffffffffffffffffffff168152602001908152602001600020600301541115151561111a57600080fd5b61116f82600560003373ffffffffffffffffffffffffffffffffffffffff1673ffffffffffffffffffffffffffffffffffffffff1681526020019081526020016000206000015461170890919063ffffffff16565b600560003373ffffffffffffffffffffffffffffffffffffffff1673ffffffffffffffffffffffffffffffffffffffff1681526020019081526020016000206000018190555042600560003373ffffffffffffffffffffffffffffffffffffffff1673ffffffffffffffffffffffffffffffffffffffff16815260200190815260200160002060010181905550611253610e10600560003373ffffffffffffffffffffffffffffffffffffffff1673ffffffffffffffffffffffffffffffffffffffff1681526020019081526020016000206001015461170890919063ffffffff16565b508383600560003373ffffffffffffffffffffffffffffffffffffffff1673ffffffffffffffffffffffffffffffffffffffff16815260200190815260200160002060040191906112a5929190611a8c565b50600190509392505050565b60045481565b6000809054906101000a900473ffffffffffffffffffffffffffffffffffffffff1673ffffffffffffffffffffffffffffffffffffffff163373ffffffffffffffffffffffffffffffffffffffff1614151561131257600080fd5b6000809054906101000a900473ffffffffffffffffffffffffffffffffffffffff1673ffffffffffffffffffffffffffffffffffffffff167ff8df31144d9c2f0f6b59d69b8b98abd5459d07f2742c4df920b25aae33c6482060405160405180910390a260008060006101000a81548173ffffffffffffffffffffffffffffffffffffffff021916908373ffffffffffffffffffffffffffffffffffffffff160217905550565b6000809054906101000a900473ffffffffffffffffffffffffffffffffffffffff1681565b600160009054906101000a900473ffffffffffffffffffffffffffffffffffffffff1681565b60008060009054906101000a900473ffffffffffffffffffffffffffffffffffffffff1673ffffffffffffffffffffffffffffffffffffffff163373ffffffffffffffffffffffffffffffffffffffff1614151561146157600080fd5b600073ffffffffffffffffffffffffffffffffffffffff168273ffffffffffffffffffffffffffffffffffffffff161415151561149d57600080fd5b600560008373ffffffffffffffffffffffffffffffffffffffff1673ffffffffffffffffffffffffffffffffffffffff16815260200190815260200160002060008082016000905560018201600090556002820160009055600382016000905560048201600061150d9190611b0c565b60058201600061151d9190611b0c565b505060019050919050565b600042600560003373ffffffffffffffffffffffffffffffffffffffff1673ffffffffffffffffffffffffffffffffffffffff1681526020019081526020016000206001015410151561157a57600080fd5b6115c633600560003373ffffffffffffffffffffffffffffffffffffffff1673ffffffffffffffffffffffffffffffffffffffff16815260200190815260200160002060000154611772565b506000600560003373ffffffffffffffffffffffffffffffffffffffff1673ffffffffffffffffffffffffffffffffffffffff168152602001908152602001600020600001819055506001905090565b6000809054906101000a900473ffffffffffffffffffffffffffffffffffffffff1673ffffffffffffffffffffffffffffffffffffffff163373ffffffffffffffffffffffffffffffffffffffff1614151561167157600080fd5b61167a816118db565b50565b6000600560003373ffffffffffffffffffffffffffffffffffffffff1673ffffffffffffffffffffffffffffffffffffffff1681526020019081526020016000206000808201600090556001820160009055600282016000905560038201600090556004820160006116ef9190611b0c565b6005820160006116ff9190611b0c565b50506001905090565b6000818301905082811015151561171b57fe5b80905092915050565b6000818381151561173157fe5b04905092915050565b60008083141561174d576000905061176c565b818302905081838281151561175e57fe5b0414151561176857fe5b8090505b92915050565b60008060009054906101000a900473ffffffffffffffffffffffffffffffffffffffff1673ffffffffffffffffffffffffffffffffffffffff168373ffffffffffffffffffffffffffffffffffffffff16141515156117d057600080fd5b600160009054906101000a900473ffffffffffffffffffffffffffffffffffffffff1673ffffffffffffffffffffffffffffffffffffffff1663a9059cbb84846040518363ffffffff167c0100000000000000000000000000000000000000000000000000000000028152600401808373ffffffffffffffffffffffffffffffffffffffff1673ffffffffffffffffffffffffffffffffffffffff16815260200182815260200192505050602060405180830381600087803b15801561189557600080fd5b505af11580156118a9573d6000803e3d6000fd5b505050506040513d60208110156118bf57600080fd5b8101908080519060200190929190505050506001905092915050565b600073ffffffffffffffffffffffffffffffffffffffff168173ffffffffffffffffffffffffffffffffffffffff161415151561191757600080fd5b8073ffffffffffffffffffffffffffffffffffffffff166000809054906101000a900473ffffffffffffffffffffffffffffffffffffffff1673ffffffffffffffffffffffffffffffffffffffff167f8be0079c531659141344cd1fd0a4f28419497f9722a3daafe3b4186f6b6457e060405160405180910390a3806000806101000a81548173ffffffffffffffffffffffffffffffffffffffff021916908373ffffffffffffffffffffffffffffffffffffffff16021790555050565b60c0604051908101604052806000815260200160008152602001600081526020016000815260200160608152602001606081525090565b828054600181600116156101000203166002900490600052602060002090601f016020900481019282601f10611a4d57805160ff1916838001178555611a7b565b82800160010185558215611a7b579182015b82811115611a7a578251825591602001919060010190611a5f565b5b509050611a889190611b54565b5090565b828054600181600116156101000203166002900490600052602060002090601f016020900481019282601f10611acd57803560ff1916838001178555611afb565b82800160010185558215611afb579182015b82811115611afa578235825591602001919060010190611adf565b5b509050611b089190611b54565b5090565b50805460018160011615610100020316600290046000825580601f10611b325750611b51565b601f016020900490600052602060002090810190611b509190611b54565b5b50565b611b7691905b80821115611b72576000816000905550600101611b5a565b5090565b905600a165627a7a723058204360e8c8df0fd889a9bb114ea5a3b7078f520ba8c9f376aa0d42b82e7132f8ca002960806040523480156200001157600080fd5b50604051620013c2380380620013c283398101806040528101908080518201929190602001805182019291906020018051906020019092919080519060200190929190505050336000806101000a81548173ffffffffffffffffffffffffffffffffffffffff021916908373ffffffffffffffffffffffffffffffffffffffff16021790555081600560008060009054906101000a900473ffffffffffffffffffffffffffffffffffffffff1673ffffffffffffffffffffffffffffffffffffffff1673ffffffffffffffffffffffffffffffffffffffff1681526020019081526020016000208190555083600190805190602001906200011492919062000146565b5082600290805190602001906200012d92919062000146565b50816003819055508060048190555050505050620001f5565b828054600181600116156101000203166002900490600052602060002090601f016020900481019282601f106200018957805160ff1916838001178555620001ba565b82800160010185558215620001ba579182015b82811115620001b95782518255916020019190600101906200019c565b5b509050620001c99190620001cd565b5090565b620001f291905b80821115620001ee576000816000905550600101620001d4565b5090565b90565b6111bd80620002056000396000f3006080604052600436106100d0576000357c0100000000000000000000000000000000000000000000000000000000900463ffffffff168063095ea7b3146100d557806318160ddd1461013a57806323b872dd1461016557806332424aa3146101ea5780633b97e856146102155780634d3cfc8314610240578063620eec961461026b5780636c02a931146102fb57806370a082311461038b5780637b61c320146103e2578063a9059cbb14610472578063b2bdfa7b146104d7578063dd62ed3e1461052e578063e2fc76fb146105a5575b600080fd5b3480156100e157600080fd5b50610120600480360381019080803573ffffffffffffffffffffffffffffffffffffffff16906020019092919080359060200190929190505050610635565b604051808215151515815260200191505060405180910390f35b34801561014657600080fd5b5061014f6107a8565b6040518082815260200191505060405180910390f35b34801561017157600080fd5b506101d0600480360381019080803573ffffffffffffffffffffffffffffffffffffffff169060200190929190803573ffffffffffffffffffffffffffffffffffffffff169060200190929190803590602001909291905050506107b2565b604051808215151515815260200191505060405180910390f35b3480156101f657600080fd5b506101ff610bac565b6040518082815260200191505060405180910390f35b34801561022157600080fd5b5061022a610bb2565b6040518082815260200191505060405180910390f35b34801561024c57600080fd5b50610255610bbc565b6040518082815260200191505060405180910390f35b34801561027757600080fd5b50610280610bc2565b6040518080602001828103825283818151815260200191508051906020019080838360005b838110156102c05780820151818401526020810190506102a5565b50505050905090810190601f1680156102ed5780820380516001836020036101000a031916815260200191505b509250505060405180910390f35b34801561030757600080fd5b50610310610c60565b6040518080602001828103825283818151815260200191508051906020019080838360005b83811015610350578082015181840152602081019050610335565b50505050905090810190601f16801561037d5780820380516001836020036101000a031916815260200191505b509250505060405180910390f35b34801561039757600080fd5b506103cc600480360381019080803573ffffffffffffffffffffffffffffffffffffffff169060200190929190505050610d02565b6040518082815260200191505060405180910390f35b3480156103ee57600080fd5b506103f7610d4b565b6040518080602001828103825283818151815260200191508051906020019080838360005b8381101561043757808201518184015260208101905061041c565b50505050905090810190601f1680156104645780820380516001836020036101000a031916815260200191505b509250505060405180910390f35b34801561047e57600080fd5b506104bd600480360381019080803573ffffffffffffffffffffffffffffffffffffffff16906020019092919080359060200190929190505050610ded565b604051808215151515815260200191505060405180910390f35b3480156104e357600080fd5b506104ec611012565b604051808273ffffffffffffffffffffffffffffffffffffffff1673ffffffffffffffffffffffffffffffffffffffff16815260200191505060405180910390f35b34801561053a57600080fd5b5061058f600480360381019080803573ffffffffffffffffffffffffffffffffffffffff169060200190929190803573ffffffffffffffffffffffffffffffffffffffff169060200190929190505050611037565b6040518082815260200191505060405180910390f35b3480156105b157600080fd5b506105ba6110be565b6040518080602001828103825283818151815260200191508051906020019080838360005b838110156105fa5780820151818401526020810190506105df565b50505050905090810190601f1680156106275780820380516001836020036101000a031916815260200191505b509250505060405180910390f35b600080600660003373ffffffffffffffffffffffffffffffffffffffff1673ffffffffffffffffffffffffffffffffffffffff16815260200190815260200160002060008573ffffffffffffffffffffffffffffffffffffffff1673ffffffffffffffffffffffffffffffffffffffff1681526020019081526020016000208190555081600660003373ffffffffffffffffffffffffffffffffffffffff1673ffffffffffffffffffffffffffffffffffffffff16815260200190815260200160002060008573ffffffffffffffffffffffffffffffffffffffff1673ffffffffffffffffffffffffffffffffffffffff168152602001908152602001600020819055508273ffffffffffffffffffffffffffffffffffffffff163373ffffffffffffffffffffffffffffffffffffffff167f8c5be1e5ebec7d5bd14f71427d1e84f3dd0314c0f7b2291e5b200ac8c7c3b925846040518082815260200191505060405180910390a36001905092915050565b6000600354905090565b60008073ffffffffffffffffffffffffffffffffffffffff168373ffffffffffffffffffffffffffffffffffffffff16141515156107ef57600080fd5b8373ffffffffffffffffffffffffffffffffffffffff168373ffffffffffffffffffffffffffffffffffffffff161415151561082a57600080fd5b600560008573ffffffffffffffffffffffffffffffffffffffff1673ffffffffffffffffffffffffffffffffffffffff16815260200190815260200160002054821115151561087857600080fd5b600660008573ffffffffffffffffffffffffffffffffffffffff1673ffffffffffffffffffffffffffffffffffffffff16815260200190815260200160002060003373ffffffffffffffffffffffffffffffffffffffff1673ffffffffffffffffffffffffffffffffffffffff16815260200190815260200160002054821115151561090357600080fd5b61099282600660008773ffffffffffffffffffffffffffffffffffffffff1673ffffffffffffffffffffffffffffffffffffffff16815260200190815260200160002060003373ffffffffffffffffffffffffffffffffffffffff1673ffffffffffffffffffffffffffffffffffffffff1681526020019081526020016000205461115c90919063ffffffff16565b600660008673ffffffffffffffffffffffffffffffffffffffff1673ffffffffffffffffffffffffffffffffffffffff16815260200190815260200160002060003373ffffffffffffffffffffffffffffffffffffffff1673ffffffffffffffffffffffffffffffffffffffff16815260200190815260200160002081905550610a6482600560008773ffffffffffffffffffffffffffffffffffffffff1673ffffffffffffffffffffffffffffffffffffffff1681526020019081526020016000205461115c90919063ffffffff16565b600560008673ffffffffffffffffffffffffffffffffffffffff1673ffffffffffffffffffffffffffffffffffffffff16815260200190815260200160002081905550610af982600560008673ffffffffffffffffffffffffffffffffffffffff1673ffffffffffffffffffffffffffffffffffffffff1681526020019081526020016000205461117590919063ffffffff16565b600560008573ffffffffffffffffffffffffffffffffffffffff1673ffffffffffffffffffffffffffffffffffffffff168152602001908152602001600020819055508273ffffffffffffffffffffffffffffffffffffffff168473ffffffffffffffffffffffffffffffffffffffff167fddf252ad1be2c89b69c2b068fc378daa952ba7f163c4a11628f55a4df523b3ef846040518082815260200191505060405180910390a3600190509392505050565b60045481565b6000600454905090565b60035481565b60028054600181600116156101000203166002900480601f016020809104026020016040519081016040528092919081815260200182805460018160011615610100020316600290048015610c585780601f10610c2d57610100808354040283529160200191610c58565b820191906000526020600020905b815481529060010190602001808311610c3b57829003601f168201915b505050505081565b606060018054600181600116156101000203166002900480601f016020809104026020016040519081016040528092919081815260200182805460018160011615610100020316600290048015610cf85780601f10610ccd57610100808354040283529160200191610cf8565b820191906000526020600020905b815481529060010190602001808311610cdb57829003601f168201915b5050505050905090565b6000600560008373ffffffffffffffffffffffffffffffffffffffff1673ffffffffffffffffffffffffffffffffffffffff168152602001908152602001600020549050919050565b606060028054600181600116156101000203166002900480601f016020809104026020016040519081016040528092919081815260200182805460018160011615610100020316600290048015610de35780601f10610db857610100808354040283529160200191610de3565b820191906000526020600020905b815481529060010190602001808311610dc657829003601f168201915b5050505050905090565b6000600560003373ffffffffffffffffffffffffffffffffffffffff1673ffffffffffffffffffffffffffffffffffffffff168152602001908152602001600020548211151515610e3d57600080fd5b600073ffffffffffffffffffffffffffffffffffffffff168373ffffffffffffffffffffffffffffffffffffffff1614151515610e7957600080fd5b610ecb82600560003373ffffffffffffffffffffffffffffffffffffffff1673ffffffffffffffffffffffffffffffffffffffff1681526020019081526020016000205461115c90919063ffffffff16565b600560003373ffffffffffffffffffffffffffffffffffffffff1673ffffffffffffffffffffffffffffffffffffffff16815260200190815260200160002081905550610f6082600560008673ffffffffffffffffffffffffffffffffffffffff1673ffffffffffffffffffffffffffffffffffffffff1681526020019081526020016000205461117590919063ffffffff16565b600560008573ffffffffffffffffffffffffffffffffffffffff1673ffffffffffffffffffffffffffffffffffffffff168152602001908152602001600020819055508273ffffffffffffffffffffffffffffffffffffffff163373ffffffffffffffffffffffffffffffffffffffff167fddf252ad1be2c89b69c2b068fc378daa952ba7f163c4a11628f55a4df523b3ef846040518082815260200191505060405180910390a36001905092915050565b6000809054906101000a900473ffffffffffffffffffffffffffffffffffffffff1681565b6000600660008473ffffffffffffffffffffffffffffffffffffffff1673ffffffffffffffffffffffffffffffffffffffff16815260200190815260200160002060008373ffffffffffffffffffffffffffffffffffffffff1673ffffffffffffffffffffffffffffffffffffffff16815260200190815260200160002054905092915050565b60018054600181600116156101000203166002900480601f0160208091040260200160405190810160405280929190818152602001828054600181600116156101000203166002900480156111545780601f1061112957610100808354040283529160200191611154565b820191906000526020600020905b81548152906001019060200180831161113757829003601f168201915b505050505081565b600082821115151561116a57fe5b818303905092915050565b6000818301905082811015151561118857fe5b809050929150505600a165627a7a723058205d54e515cfa07861ee869cf00ac082daf7c0ce6b7eafe246dc5dd9fece997ad70029a165627a7a72305820796fbb81196e1df59dc9d5aeaf3bf5401239e099d2d63bd4d2111203fd2b6e580029",
  "source": "pragma solidity ^0.4.23;\n\n\nimport \"./StreamToken.sol\";\nimport \"openzeppelin-solidity/contracts/math/SafeMath.sol\";\nimport \"openzeppelin-solidity/contracts/ownership/Ownable.sol\";\n\n\n\ncontract StreamerFactory {\n\n\taddress[] public _deployedStreamers;\n\n\tfunction deployStreamer(\n\t\tstring tokeName, \n\t\tstring tokenSymbol, \n\t\tuint256 tokenSupply, \n\t\tuint256 tokenDecimals) public returns (address) {\n\n\t\taddress newStreamer = new Streamer(tokeName,tokenSymbol,tokenSupply,tokenDecimals);\n\t\t_deployedStreamers.push(newStreamer);\n\n\t\treturn newStreamer;\n\t}\n\n\n\tfunction returnDeployed() public view returns (address[]) {\n\t\treturn _deployedStreamers;\n\t}\n\n}\n\n\n\n/*\n *\t@Title: Streamer\n *\t\n *\t@dev: Streamer is a basic a base contract for managing subscribers, having your own token\n *\t\t  and running donations through your ERC-20 token. When someone subscribes to the Streamer\n *\t\t  a certain amount of token is given to the subscriber which is later used for donations.\n *\t\t  Donation can be refunded, under the condition that < 24 hours have passed since the donation.\n *\t\t  Subscription is also time based, with the base subscription value bying 31 days.\t\t\n */\ncontract Streamer is Ownable{\n\n\tusing SafeMath for uint256;\n\n\tStreamToken public _streamer_token; /* Streamer is the owner and distributor of the token he constructs */\n\tuint256 _subscription_wei;\t\t\t/* wei raised from subscriptions */\n\tuint256 public _cost;\t\t\t\t/* amount of wei a subscription costs */\n\tuint256 public _subsciber_token;\t/* StreamToken to be transfered for a new subscription */\n\n\tstruct Subscriber{\n\t\tuint256 donation;\t/* donation amount */\n\t\tuint256 timer;\t\t/* timer for donation; checked when someone requests refund */\n\t\tuint256 date;\t\t/* date of subscription */\n\t\tuint256 expiration;\t/* date the subscription expires */\n\t\tstring message;\t\t/* donation message */\n\t\tstring name;\t\t/* subscribers username */\n\t}\n\n\tmapping (address => Subscriber) public subscribers;\n\n\n\n\tconstructor(\n\t\tstring tokeName, \n\t\tstring tokenSymbol, \n\t\tuint256 tokenSupply, \n\t\tuint256 tokenDecimals) public {\n\n\t\t_streamer_token = new StreamToken(tokeName,tokenSymbol,tokenSupply,tokenDecimals);\n\t\t_cost = 2 wei;\n\t\t_subsciber_token = 50;\n\t}\n\n\n\t/*\n\t *\t@param amount The amount of tokens someone receives upon subscription.\n\t *\n\t */\n\tfunction setInitialSubToken(uint256 amount) onlyOwner public returns (uint256){\t\n\t\t_subsciber_token = amount;\n\t\treturn _subsciber_token;\n\t}\n\n\n\t/*\n\t *\t@param amount How many Wei a subscription costs.\n\t *\n\t */\n\tfunction setSubscriptionCost(uint256 amount) onlyOwner public returns (uint256){\t\n\t\t_cost = amount;\t\n\t\treturn _cost;\n\t}\n\n\n\t/*\n\t *\t@param subscriber The address of the subscriber.\n\t *\n\t */\n\tfunction getSubscriberName(address subscriber) public view returns (string){\n\t\trequire(subscriber != address(0));\n\t\treturn subscribers[subscriber].name;\n\t} \n\n\n\t/*\n\t *\t@param subscriber The address of the subscriber.\n\t *\n\t */\n\tfunction getDonationMsg(address subscriber) public view returns (string) {\n\t\trequire(subscriber != address(0));\n\t\treturn subscribers[subscriber].message;\n\t}\n\n\n\t/*\n\t *\t@dev: Subscription function requires a _cost amount of wei for someone to\n\t *\t\t  subscribe, calculates the date of expiration for the subscription\n\t *\t\t  and transfers _subsciber_token to the new subscriber.\n\t *\n\t *\t@param name The username of the subscriber.\n\t */\n\tfunction subscribe(string name) public payable returns (bool) {\n\n\t\trequire(msg.value >= _cost);\n\t\trequire(subscribers[msg.sender].expiration <= block.timestamp);\n\n\t\t_subscription_wei.add(msg.value);\n\t\tSubscriber memory to_push = Subscriber(0, 0, block.timestamp, msg.value,\"\",name);\n\t\tsubscribers[msg.sender] = to_push;\n\t\tsubscribers[msg.sender].expiration.div(_cost).mul(2629743).add(block.timestamp);\n\n\t\t_streamer_token.transfer(msg.sender,_subsciber_token);\n\n\t\treturn true;\n\t}\n\n\n\n\tfunction getSubscriptionDate() public view returns (uint256) {\n\t\treturn subscribers[msg.sender].date;\n\t}\n\n\n\n\tfunction getSubscriptionExpires() public view returns (uint256) { \n\t\treturn subscribers[msg.sender].expiration;\n\t}\n\n\n\n\tfunction unsubscribe() public returns (bool) {\n\t\tdelete subscribers[msg.sender];\n\t\treturn true;\n\t}\n\n\n\t/*\n\t *\t@param toBan The address of the subscriber.\n\t *\n\t */\n\tfunction banSubscriber(address toBan) onlyOwner public returns (bool) {\n\t\trequire(toBan != address(0));\n\t\tdelete subscribers[toBan];\n\t\treturn true;\n\t}\t\n\n\n\n\t/*\n\t *\t@param message The donation message.\n\t * \t@param amount The amount of token to donate.\n\t *\n\t */\n\tfunction donateToken(string message, uint256 amount) external returns (bool) {\n\t\trequire(_streamer_token.transfer(owner,amount) != false);\n\t\trequire(subscribers[msg.sender].expiration <= block.timestamp);\n\n\t\tsubscribers[msg.sender].donation = subscribers[msg.sender].donation.add(amount);\n\t\tsubscribers[msg.sender].timer = block.timestamp;\n\t\tsubscribers[msg.sender].timer.add(3600);\n\t\tsubscribers[msg.sender].message = message;\n\t\t\n\t\treturn true;\n\t}\n\n\n\n\t/*\n\t *\t@dev: Refund utility (as the refund transfer needs to come from the owner).\n\t *\t\t  Can't be used out of this contract. \n\t *\n\t *\t@param donator Donators address.\n\t * \t@param value The amount of token to refund.\n\t *\n\t */\n\tfunction refund(address donator, uint256 value) private returns (bool) {\n\n\t\trequire( donator != owner );\n\n\t\t_streamer_token.transfer(donator,value);\n\n\t\treturn true;\n\t}\n\n\n\n\tfunction requestRefund() external returns (bool) {\n\t\trequire( subscribers[msg.sender].timer < block.timestamp);\n\n\t\trefund(msg.sender,subscribers[msg.sender].donation);\n\n\t\tsubscribers[msg.sender].donation = 0;\n\n\t\treturn true;\n\t}\n}",
  "sourcePath": "/home/manos/Documents/EthereumStream/contracts/Streamer.sol",
  "compiler": {
    "name": "solc",
    "version": "0.4.24+commit.e67f0147.Emscripten.clang"
  },
  "schemaVersion": "2.0.1",
  "updatedAt": "2018-06-25T07:49:33.656Z"
}