{
  "contractName": "StreamToken",
  "abi": [
    {
      "constant": true,
      "inputs": [],
      "name": "_decimals",
      "outputs": [
        {
          "name": "",
          "type": "uint256"
        }
      ],
      "payable": false,
      "stateMutability": "view",
      "type": "function"
    },
    {
      "constant": true,
      "inputs": [],
      "name": "_total_supply",
      "outputs": [
        {
          "name": "",
          "type": "uint256"
        }
      ],
      "payable": false,
      "stateMutability": "view",
      "type": "function"
    },
    {
      "constant": true,
      "inputs": [],
      "name": "_token_symbol",
      "outputs": [
        {
          "name": "",
          "type": "string"
        }
      ],
      "payable": false,
      "stateMutability": "view",
      "type": "function"
    },
    {
      "constant": true,
      "inputs": [],
      "name": "_owner",
      "outputs": [
        {
          "name": "",
          "type": "address"
        }
      ],
      "payable": false,
      "stateMutability": "view",
      "type": "function"
    },
    {
      "constant": true,
      "inputs": [],
      "name": "_token_name",
      "outputs": [
        {
          "name": "",
          "type": "string"
        }
      ],
      "payable": false,
      "stateMutability": "view",
      "type": "function"
    },
    {
      "inputs": [
        {
          "name": "name",
          "type": "string"
        },
        {
          "name": "symbol",
          "type": "string"
        },
        {
          "name": "supply",
          "type": "uint256"
        },
        {
          "name": "decimals",
          "type": "uint256"
        }
      ],
      "payable": false,
      "stateMutability": "nonpayable",
      "type": "constructor"
    },
    {
      "anonymous": false,
      "inputs": [
        {
          "indexed": true,
          "name": "owner",
          "type": "address"
        },
        {
          "indexed": true,
          "name": "spender",
          "type": "address"
        },
        {
          "indexed": false,
          "name": "value",
          "type": "uint256"
        }
      ],
      "name": "Approval",
      "type": "event"
    },
    {
      "anonymous": false,
      "inputs": [
        {
          "indexed": true,
          "name": "from",
          "type": "address"
        },
        {
          "indexed": true,
          "name": "to",
          "type": "address"
        },
        {
          "indexed": false,
          "name": "value",
          "type": "uint256"
        }
      ],
      "name": "Transfer",
      "type": "event"
    },
    {
      "constant": true,
      "inputs": [],
      "name": "tokenName",
      "outputs": [
        {
          "name": "",
          "type": "string"
        }
      ],
      "payable": false,
      "stateMutability": "view",
      "type": "function"
    },
    {
      "constant": true,
      "inputs": [],
      "name": "tokenSymbol",
      "outputs": [
        {
          "name": "",
          "type": "string"
        }
      ],
      "payable": false,
      "stateMutability": "view",
      "type": "function"
    },
    {
      "constant": true,
      "inputs": [],
      "name": "tokenDecimals",
      "outputs": [
        {
          "name": "",
          "type": "uint256"
        }
      ],
      "payable": false,
      "stateMutability": "view",
      "type": "function"
    },
    {
      "constant": true,
      "inputs": [],
      "name": "totalSupply",
      "outputs": [
        {
          "name": "",
          "type": "uint256"
        }
      ],
      "payable": false,
      "stateMutability": "view",
      "type": "function"
    },
    {
      "constant": true,
      "inputs": [
        {
          "name": "who",
          "type": "address"
        }
      ],
      "name": "balanceOf",
      "outputs": [
        {
          "name": "",
          "type": "uint256"
        }
      ],
      "payable": false,
      "stateMutability": "view",
      "type": "function"
    },
    {
      "constant": false,
      "inputs": [
        {
          "name": "to",
          "type": "address"
        },
        {
          "name": "value",
          "type": "uint256"
        }
      ],
      "name": "transfer",
      "outputs": [
        {
          "name": "",
          "type": "bool"
        }
      ],
      "payable": false,
      "stateMutability": "nonpayable",
      "type": "function"
    },
    {
      "constant": true,
      "inputs": [
        {
          "name": "owner",
          "type": "address"
        },
        {
          "name": "spender",
          "type": "address"
        }
      ],
      "name": "allowance",
      "outputs": [
        {
          "name": "",
          "type": "uint256"
        }
      ],
      "payable": false,
      "stateMutability": "view",
      "type": "function"
    },
    {
      "constant": false,
      "inputs": [
        {
          "name": "from",
          "type": "address"
        },
        {
          "name": "to",
          "type": "address"
        },
        {
          "name": "value",
          "type": "uint256"
        }
      ],
      "name": "transferFrom",
      "outputs": [
        {
          "name": "",
          "type": "bool"
        }
      ],
      "payable": false,
      "stateMutability": "nonpayable",
      "type": "function"
    },
    {
      "constant": false,
      "inputs": [
        {
          "name": "spender",
          "type": "address"
        },
        {
          "name": "value",
          "type": "uint256"
        }
      ],
      "name": "approve",
      "outputs": [
        {
          "name": "",
          "type": "bool"
        }
      ],
      "payable": false,
      "stateMutability": "nonpayable",
      "type": "function"
    }
  ],
  "bytecode": "0x60806040523480156200001157600080fd5b50604051620013c2380380620013c283398101806040528101908080518201929190602001805182019291906020018051906020019092919080519060200190929190505050336000806101000a81548173ffffffffffffffffffffffffffffffffffffffff021916908373ffffffffffffffffffffffffffffffffffffffff16021790555081600560008060009054906101000a900473ffffffffffffffffffffffffffffffffffffffff1673ffffffffffffffffffffffffffffffffffffffff1673ffffffffffffffffffffffffffffffffffffffff1681526020019081526020016000208190555083600190805190602001906200011492919062000146565b5082600290805190602001906200012d92919062000146565b50816003819055508060048190555050505050620001f5565b828054600181600116156101000203166002900490600052602060002090601f016020900481019282601f106200018957805160ff1916838001178555620001ba565b82800160010185558215620001ba579182015b82811115620001b95782518255916020019190600101906200019c565b5b509050620001c99190620001cd565b5090565b620001f291905b80821115620001ee576000816000905550600101620001d4565b5090565b90565b6111bd80620002056000396000f3006080604052600436106100d0576000357c0100000000000000000000000000000000000000000000000000000000900463ffffffff168063095ea7b3146100d557806318160ddd1461013a57806323b872dd1461016557806332424aa3146101ea5780633b97e856146102155780634d3cfc8314610240578063620eec961461026b5780636c02a931146102fb57806370a082311461038b5780637b61c320146103e2578063a9059cbb14610472578063b2bdfa7b146104d7578063dd62ed3e1461052e578063e2fc76fb146105a5575b600080fd5b3480156100e157600080fd5b50610120600480360381019080803573ffffffffffffffffffffffffffffffffffffffff16906020019092919080359060200190929190505050610635565b604051808215151515815260200191505060405180910390f35b34801561014657600080fd5b5061014f6107a8565b6040518082815260200191505060405180910390f35b34801561017157600080fd5b506101d0600480360381019080803573ffffffffffffffffffffffffffffffffffffffff169060200190929190803573ffffffffffffffffffffffffffffffffffffffff169060200190929190803590602001909291905050506107b2565b604051808215151515815260200191505060405180910390f35b3480156101f657600080fd5b506101ff610bac565b6040518082815260200191505060405180910390f35b34801561022157600080fd5b5061022a610bb2565b6040518082815260200191505060405180910390f35b34801561024c57600080fd5b50610255610bbc565b6040518082815260200191505060405180910390f35b34801561027757600080fd5b50610280610bc2565b6040518080602001828103825283818151815260200191508051906020019080838360005b838110156102c05780820151818401526020810190506102a5565b50505050905090810190601f1680156102ed5780820380516001836020036101000a031916815260200191505b509250505060405180910390f35b34801561030757600080fd5b50610310610c60565b6040518080602001828103825283818151815260200191508051906020019080838360005b83811015610350578082015181840152602081019050610335565b50505050905090810190601f16801561037d5780820380516001836020036101000a031916815260200191505b509250505060405180910390f35b34801561039757600080fd5b506103cc600480360381019080803573ffffffffffffffffffffffffffffffffffffffff169060200190929190505050610d02565b6040518082815260200191505060405180910390f35b3480156103ee57600080fd5b506103f7610d4b565b6040518080602001828103825283818151815260200191508051906020019080838360005b8381101561043757808201518184015260208101905061041c565b50505050905090810190601f1680156104645780820380516001836020036101000a031916815260200191505b509250505060405180910390f35b34801561047e57600080fd5b506104bd600480360381019080803573ffffffffffffffffffffffffffffffffffffffff16906020019092919080359060200190929190505050610ded565b604051808215151515815260200191505060405180910390f35b3480156104e357600080fd5b506104ec611012565b604051808273ffffffffffffffffffffffffffffffffffffffff1673ffffffffffffffffffffffffffffffffffffffff16815260200191505060405180910390f35b34801561053a57600080fd5b5061058f600480360381019080803573ffffffffffffffffffffffffffffffffffffffff169060200190929190803573ffffffffffffffffffffffffffffffffffffffff169060200190929190505050611037565b6040518082815260200191505060405180910390f35b3480156105b157600080fd5b506105ba6110be565b6040518080602001828103825283818151815260200191508051906020019080838360005b838110156105fa5780820151818401526020810190506105df565b50505050905090810190601f1680156106275780820380516001836020036101000a031916815260200191505b509250505060405180910390f35b600080600660003373ffffffffffffffffffffffffffffffffffffffff1673ffffffffffffffffffffffffffffffffffffffff16815260200190815260200160002060008573ffffffffffffffffffffffffffffffffffffffff1673ffffffffffffffffffffffffffffffffffffffff1681526020019081526020016000208190555081600660003373ffffffffffffffffffffffffffffffffffffffff1673ffffffffffffffffffffffffffffffffffffffff16815260200190815260200160002060008573ffffffffffffffffffffffffffffffffffffffff1673ffffffffffffffffffffffffffffffffffffffff168152602001908152602001600020819055508273ffffffffffffffffffffffffffffffffffffffff163373ffffffffffffffffffffffffffffffffffffffff167f8c5be1e5ebec7d5bd14f71427d1e84f3dd0314c0f7b2291e5b200ac8c7c3b925846040518082815260200191505060405180910390a36001905092915050565b6000600354905090565b60008073ffffffffffffffffffffffffffffffffffffffff168373ffffffffffffffffffffffffffffffffffffffff16141515156107ef57600080fd5b8373ffffffffffffffffffffffffffffffffffffffff168373ffffffffffffffffffffffffffffffffffffffff161415151561082a57600080fd5b600560008573ffffffffffffffffffffffffffffffffffffffff1673ffffffffffffffffffffffffffffffffffffffff16815260200190815260200160002054821115151561087857600080fd5b600660008573ffffffffffffffffffffffffffffffffffffffff1673ffffffffffffffffffffffffffffffffffffffff16815260200190815260200160002060003373ffffffffffffffffffffffffffffffffffffffff1673ffffffffffffffffffffffffffffffffffffffff16815260200190815260200160002054821115151561090357600080fd5b61099282600660008773ffffffffffffffffffffffffffffffffffffffff1673ffffffffffffffffffffffffffffffffffffffff16815260200190815260200160002060003373ffffffffffffffffffffffffffffffffffffffff1673ffffffffffffffffffffffffffffffffffffffff1681526020019081526020016000205461115c90919063ffffffff16565b600660008673ffffffffffffffffffffffffffffffffffffffff1673ffffffffffffffffffffffffffffffffffffffff16815260200190815260200160002060003373ffffffffffffffffffffffffffffffffffffffff1673ffffffffffffffffffffffffffffffffffffffff16815260200190815260200160002081905550610a6482600560008773ffffffffffffffffffffffffffffffffffffffff1673ffffffffffffffffffffffffffffffffffffffff1681526020019081526020016000205461115c90919063ffffffff16565b600560008673ffffffffffffffffffffffffffffffffffffffff1673ffffffffffffffffffffffffffffffffffffffff16815260200190815260200160002081905550610af982600560008673ffffffffffffffffffffffffffffffffffffffff1673ffffffffffffffffffffffffffffffffffffffff1681526020019081526020016000205461117590919063ffffffff16565b600560008573ffffffffffffffffffffffffffffffffffffffff1673ffffffffffffffffffffffffffffffffffffffff168152602001908152602001600020819055508273ffffffffffffffffffffffffffffffffffffffff168473ffffffffffffffffffffffffffffffffffffffff167fddf252ad1be2c89b69c2b068fc378daa952ba7f163c4a11628f55a4df523b3ef846040518082815260200191505060405180910390a3600190509392505050565b60045481565b6000600454905090565b60035481565b60028054600181600116156101000203166002900480601f016020809104026020016040519081016040528092919081815260200182805460018160011615610100020316600290048015610c585780601f10610c2d57610100808354040283529160200191610c58565b820191906000526020600020905b815481529060010190602001808311610c3b57829003601f168201915b505050505081565b606060018054600181600116156101000203166002900480601f016020809104026020016040519081016040528092919081815260200182805460018160011615610100020316600290048015610cf85780601f10610ccd57610100808354040283529160200191610cf8565b820191906000526020600020905b815481529060010190602001808311610cdb57829003601f168201915b5050505050905090565b6000600560008373ffffffffffffffffffffffffffffffffffffffff1673ffffffffffffffffffffffffffffffffffffffff168152602001908152602001600020549050919050565b606060028054600181600116156101000203166002900480601f016020809104026020016040519081016040528092919081815260200182805460018160011615610100020316600290048015610de35780601f10610db857610100808354040283529160200191610de3565b820191906000526020600020905b815481529060010190602001808311610dc657829003601f168201915b5050505050905090565b6000600560003373ffffffffffffffffffffffffffffffffffffffff1673ffffffffffffffffffffffffffffffffffffffff168152602001908152602001600020548211151515610e3d57600080fd5b600073ffffffffffffffffffffffffffffffffffffffff168373ffffffffffffffffffffffffffffffffffffffff1614151515610e7957600080fd5b610ecb82600560003373ffffffffffffffffffffffffffffffffffffffff1673ffffffffffffffffffffffffffffffffffffffff1681526020019081526020016000205461115c90919063ffffffff16565b600560003373ffffffffffffffffffffffffffffffffffffffff1673ffffffffffffffffffffffffffffffffffffffff16815260200190815260200160002081905550610f6082600560008673ffffffffffffffffffffffffffffffffffffffff1673ffffffffffffffffffffffffffffffffffffffff1681526020019081526020016000205461117590919063ffffffff16565b600560008573ffffffffffffffffffffffffffffffffffffffff1673ffffffffffffffffffffffffffffffffffffffff168152602001908152602001600020819055508273ffffffffffffffffffffffffffffffffffffffff163373ffffffffffffffffffffffffffffffffffffffff167fddf252ad1be2c89b69c2b068fc378daa952ba7f163c4a11628f55a4df523b3ef846040518082815260200191505060405180910390a36001905092915050565b6000809054906101000a900473ffffffffffffffffffffffffffffffffffffffff1681565b6000600660008473ffffffffffffffffffffffffffffffffffffffff1673ffffffffffffffffffffffffffffffffffffffff16815260200190815260200160002060008373ffffffffffffffffffffffffffffffffffffffff1673ffffffffffffffffffffffffffffffffffffffff16815260200190815260200160002054905092915050565b60018054600181600116156101000203166002900480601f0160208091040260200160405190810160405280929190818152602001828054600181600116156101000203166002900480156111545780601f1061112957610100808354040283529160200191611154565b820191906000526020600020905b81548152906001019060200180831161113757829003601f168201915b505050505081565b600082821115151561116a57fe5b818303905092915050565b6000818301905082811015151561118857fe5b809050929150505600a165627a7a723058205d54e515cfa07861ee869cf00ac082daf7c0ce6b7eafe246dc5dd9fece997ad70029",
  "source": "pragma solidity ^0.4.23;\n\nimport \"openzeppelin-solidity/contracts/token/ERC20/ERC20.sol\";\nimport \"openzeppelin-solidity/contracts/math/SafeMath.sol\";\n\n\ncontract StreamToken is ERC20{\n\n\tusing SafeMath for uint256;\n\n\taddress public _owner;\n\tstring public _token_name;\n    string public _token_symbol;\n    uint256 public _total_supply;\n    uint256 public _decimals;\n\n    mapping (address => uint256) _accounts_balance;\n    mapping (address => mapping (address => uint256)) internal _allowed;\n\n    constructor(string name, string symbol, uint256 supply, uint256 decimals) public {\n    \t_owner = msg.sender;\n    \t_accounts_balance[_owner] = supply;\n    \t_token_name = name;\n\t\t_token_symbol = symbol;\n\t\t_total_supply = supply;\n\t\t_decimals = decimals;\n    }\n\n    function tokenName() public view returns (string){\n    \treturn _token_name;\n    }\n\n    function tokenSymbol() public view returns (string){\n    \treturn _token_symbol;\n    }\n\n\tfunction tokenDecimals() public view returns (uint256){\n    \treturn _decimals;\n    }    \n\n    /* From ECR20 interface (just implement) */\n    function totalSupply() public view returns (uint256){\n    \treturn _total_supply;\n    }\n\n\tfunction balanceOf(address who) public view returns (uint256){\n\t\treturn _accounts_balance[who];\n\t}\n\n\t/*\n\t\tTransfers _value amount of tokens to address _to, and MUST fire the Transfer event.\n\t\tThe function SHOULD throw if the _from account balance does not have enough tokens to spend.\n\t\tNote Transfers of 0 values MUST be treated as normal transfers and fire the Transfer event.\n\t*/\n\tfunction transfer(address to, uint256 value) public returns (bool){\n\t\n\t\trequire(value <= _accounts_balance[msg.sender]);\t// check if sender has the amount to send\n\t\trequire(to != address(0));\n\n\t\t// Commit the transaction\n\t\t_accounts_balance[msg.sender] = _accounts_balance[msg.sender].sub(value);\n\t\t_accounts_balance[to] = _accounts_balance[to].add(value);\n\n\t\t// Emit the transfer event to the blockchain\n\t\temit Transfer(msg.sender,to,value);\n\n\t\treturn true;\n\t}\n    \n    /*\n    \tReturns the amount which _spender is still allowed to withdraw from _owner.\n\t*/\n    function allowance(address owner, address spender) public view returns (uint256){\n\n    \treturn _allowed[owner][spender];\n    }\n\n    /*\n\t\tTransfers _value amount of tokens from address _from to address _to, and MUST fire the Transfer event.\n\t\tThe transferFrom method is used for a withdraw workflow, allowing contracts to transfer tokens on your behalf.\n\t\tThis can be used for example to allow a contract to transfer tokens \n\t\ton your behalf and/or to charge fees in sub-currencies. \n\t\tThe function SHOULD throw unless the _from account has deliberately authorized the sender of the message via some mechanism.\n\t\t\n\t\tNote Transfers of 0 values MUST be treated as normal transfers and fire the Transfer event.\n\n    */\n\tfunction transferFrom(address from, address to, uint256 value) public returns (bool){\n\t\t\n\t\trequire(to != address(0));\n\t\trequire(to != from);\t// avoid token cycling\n\t\trequire(value <= _accounts_balance[from]);\n\t\trequire(value <= _allowed[from][msg.sender]);\n\n\t\t// Decrease the allowance\n\t\t_allowed[from][msg.sender] = _allowed[from][msg.sender].sub(value);\n\n\t\t// Commit the transaction\n\t\t_accounts_balance[from] = _accounts_balance[from].sub(value);\n\t\t_accounts_balance[to] = _accounts_balance[to].add(value);\n\n\t\t// Emit the relevant event to the blockchain\n\t\temit Transfer(from,to,value);\n\n\t\treturn true;\n\t}\n\n\t/*\n\t\tAllows _spender to withdraw from your account multiple times, up to the _value amount. \n\t\tIf this function is called again it overwrites the current allowance with _value.\n\n\t\tNOTE: To prevent attack vectors like the one described here and discussed here, \n\t\tclients SHOULD make sure to create user interfaces in such a way that \n\t\tthey set the allowance first to 0 before setting it to another value for the same spender. \n\t\tTHOUGH The contract itself shouldn't enforce it, \n\t\tto allow backwards compatibility with contracts deployed before\n\t*/\n\tfunction approve(address spender, uint256 value) public returns (bool){\n\t\t\n\t\t_allowed[msg.sender][spender] = 0;\t\t// set to 0 as advised\n\t\t_allowed[msg.sender][spender] = value;\n\n\t\temit Approval(msg.sender,spender,value);\n\n\t\treturn true;\n\t}\n\n\t/*\n\t\tevent Transfer(address indexed from, address indexed to, uint256 value);\n\n\t\tMUST trigger when tokens are transferred, including zero value transfers.\n\t\tA token contract which creates new tokens SHOULD trigger a Transfer event with the _from address \n\t\tset to 0x0 when tokens are created.\n\t*/\n\n\n\t/*\n\t\tevent Approval(address indexed owner, address indexed spender, uint256 value);\n\n\t\tMUST trigger on any successful call to approve(address _spender, uint256 _value).\n\t*/\n}",
  "sourcePath": "/home/manos/Documents/EthereumStream/contracts/StreamToken.sol",
  "compiler": {
    "name": "solc",
    "version": "0.4.24+commit.e67f0147.Emscripten.clang"
  },
  "schemaVersion": "2.0.1",
  "updatedAt": "2018-06-23T16:35:21.446Z"
}